{
  "_format": "hh-sol-artifact-1",
  "contractName": "Voting",
  "sourceName": "contracts/Voting.sol",
  "abi": [
    {
      "anonymous": false,
      "inputs": [
        {
          "indexed": true,
          "internalType": "uint256",
          "name": "round",
          "type": "uint256"
        },
        {
          "indexed": true,
          "internalType": "address",
          "name": "voter",
          "type": "address"
        },
        {
          "indexed": true,
          "internalType": "uint256",
          "name": "targetId",
          "type": "uint256"
        }
      ],
      "name": "VoteCast",
      "type": "event"
    },
    {
      "inputs": [
        {
          "internalType": "uint256",
          "name": "round",
          "type": "uint256"
        },
        {
          "internalType": "uint256",
          "name": "targetId",
          "type": "uint256"
        }
      ],
      "name": "castVote",
      "outputs": [],
      "stateMutability": "nonpayable",
      "type": "function"
    },
    {
      "inputs": [
        {
          "internalType": "uint256",
          "name": "round",
          "type": "uint256"
        },
        {
          "internalType": "uint256",
          "name": "targetId",
          "type": "uint256"
        }
      ],
      "name": "getVotes",
      "outputs": [
        {
          "internalType": "uint256",
          "name": "",
          "type": "uint256"
        }
      ],
      "stateMutability": "view",
      "type": "function"
    },
    {
      "inputs": [
        {
          "internalType": "uint256",
          "name": "",
          "type": "uint256"
        },
        {
          "internalType": "address",
          "name": "",
          "type": "address"
        }
      ],
      "name": "hasVoted",
      "outputs": [
        {
          "internalType": "bool",
          "name": "",
          "type": "bool"
        }
      ],
      "stateMutability": "view",
      "type": "function"
    },
    {
      "inputs": [
        {
          "internalType": "uint256",
          "name": "",
          "type": "uint256"
        },
        {
          "internalType": "uint256",
          "name": "",
          "type": "uint256"
        }
      ],
      "name": "votes",
      "outputs": [
        {
          "internalType": "uint256",
          "name": "",
          "type": "uint256"
        }
      ],
      "stateMutability": "view",
      "type": "function"
    }
  ],
  "bytecode": "0x608060405234801561001057600080fd5b506102b1806100206000396000f3fe608060405234801561001057600080fd5b506004361061004c5760003560e01c80632c0a3f8914610051578063438596321461006657806391f36633146100a9578063c6e36a32146100ca575b600080fd5b61006461005f3660046101fc565b6100f2565b005b61009461007436600461021e565b600160209081526000928352604080842090915290825290205460ff1681565b60405190151581526020015b60405180910390f35b6100bc6100b73660046101fc565b6101dd565b6040519081526020016100a0565b6100bc6100d83660046101fc565b600060208181529281526040808220909352908152205481565b600082815260016020908152604080832033845290915290205460ff16156101605760405162461bcd60e51b815260206004820152601860248201527f416c726561647920766f746564207468697320726f756e640000000000000000604482015260640160405180910390fd5b60008281526001602081815260408084203385528252808420805460ff19168417905585845283825280842085855290915282208054919290916101a590849061025a565b90915550506040518190339084907f2acce567deca3aabf56327adbb4524bd5318936eaefa69e3a5208ffda0cfec0990600090a45050565b6000828152602081815260408083208484529091529020545b92915050565b6000806040838503121561020f57600080fd5b50508035926020909101359150565b6000806040838503121561023157600080fd5b8235915060208301356001600160a01b038116811461024f57600080fd5b809150509250929050565b808201808211156101f657634e487b7160e01b600052601160045260246000fdfea2646970667358221220a1c79512390513d6027378872dd785e82fed75a3616cd2bafd313881b07d793b64736f6c63430008140033",
  "linkReferences": {},
  "deployedLinkReferences": {}
}