{
  "_format": "hh-sol-artifact-1",
  "contractName": "GameNFT",
  "sourceName": "contracts/GameNFT.sol",
  "abi": [
    {
      "inputs": [],
      "stateMutability": "nonpayable",
      "type": "constructor"
    },
    {
      "inputs": [],
      "name": "ERC721EnumerableForbiddenBatchMint",
      "type": "error"
    },
    {
      "inputs": [
        {
          "internalType": "address",
          "name": "sender",
          "type": "address"
        },
        {
          "internalType": "uint256",
          "name": "tokenId",
          "type": "uint256"
        },
        {
          "internalType": "address",
          "name": "owner",
          "type": "address"
        }
      ],
      "name": "ERC721IncorrectOwner",
      "type": "error"
    },
    {
      "inputs": [
        {
          "internalType": "address",
          "name": "operator",
          "type": "address"
        },
        {
          "internalType": "uint256",
          "name": "tokenId",
          "type": "uint256"
        }
      ],
      "name": "ERC721InsufficientApproval",
      "type": "error"
    },
    {
      "inputs": [
        {
          "internalType": "address",
          "name": "approver",
          "type": "address"
        }
      ],
      "name": "ERC721InvalidApprover",
      "type": "error"
    },
    {
      "inputs": [
        {
          "internalType": "address",
          "name": "operator",
          "type": "address"
        }
      ],
      "name": "ERC721InvalidOperator",
      "type": "error"
    },
    {
      "inputs": [
        {
          "internalType": "address",
          "name": "owner",
          "type": "address"
        }
      ],
      "name": "ERC721InvalidOwner",
      "type": "error"
    },
    {
      "inputs": [
        {
          "internalType": "address",
          "name": "receiver",
          "type": "address"
        }
      ],
      "name": "ERC721InvalidReceiver",
      "type": "error"
    },
    {
      "inputs": [
        {
          "internalType": "address",
          "name": "sender",
          "type": "address"
        }
      ],
      "name": "ERC721InvalidSender",
      "type": "error"
    },
    {
      "inputs": [
        {
          "internalType": "uint256",
          "name": "tokenId",
          "type": "uint256"
        }
      ],
      "name": "ERC721NonexistentToken",
      "type": "error"
    },
    {
      "inputs": [
        {
          "internalType": "address",
          "name": "owner",
          "type": "address"
        },
        {
          "internalType": "uint256",
          "name": "index",
          "type": "uint256"
        }
      ],
      "name": "ERC721OutOfBoundsIndex",
      "type": "error"
    },
    {
      "inputs": [
        {
          "internalType": "address",
          "name": "owner",
          "type": "address"
        }
      ],
      "name": "OwnableInvalidOwner",
      "type": "error"
    },
    {
      "inputs": [
        {
          "internalType": "address",
          "name": "account",
          "type": "address"
        }
      ],
      "name": "OwnableUnauthorizedAccount",
      "type": "error"
    },
    {
      "anonymous": false,
      "inputs": [
        {
          "indexed": true,
          "internalType": "address",
          "name": "owner",
          "type": "address"
        },
        {
          "indexed": true,
          "internalType": "address",
          "name": "approved",
          "type": "address"
        },
        {
          "indexed": true,
          "internalType": "uint256",
          "name": "tokenId",
          "type": "uint256"
        }
      ],
      "name": "Approval",
      "type": "event"
    },
    {
      "anonymous": false,
      "inputs": [
        {
          "indexed": true,
          "internalType": "address",
          "name": "owner",
          "type": "address"
        },
        {
          "indexed": true,
          "internalType": "address",
          "name": "operator",
          "type": "address"
        },
        {
          "indexed": false,
          "internalType": "bool",
          "name": "approved",
          "type": "bool"
        }
      ],
      "name": "ApprovalForAll",
      "type": "event"
    },
    {
      "anonymous": false,
      "inputs": [
        {
          "indexed": true,
          "internalType": "address",
          "name": "previousOwner",
          "type": "address"
        },
        {
          "indexed": true,
          "internalType": "address",
          "name": "newOwner",
          "type": "address"
        }
      ],
      "name": "OwnershipTransferred",
      "type": "event"
    },
    {
      "anonymous": false,
      "inputs": [
        {
          "indexed": true,
          "internalType": "address",
          "name": "from",
          "type": "address"
        },
        {
          "indexed": true,
          "internalType": "address",
          "name": "to",
          "type": "address"
        },
        {
          "indexed": true,
          "internalType": "uint256",
          "name": "tokenId",
          "type": "uint256"
        }
      ],
      "name": "Transfer",
      "type": "event"
    },
    {
      "inputs": [],
      "name": "MAX_SUPPLY",
      "outputs": [
        {
          "internalType": "uint256",
          "name": "",
          "type": "uint256"
        }
      ],
      "stateMutability": "view",
      "type": "function"
    },
    {
      "inputs": [
        {
          "internalType": "address",
          "name": "to",
          "type": "address"
        },
        {
          "internalType": "uint256",
          "name": "tokenId",
          "type": "uint256"
        }
      ],
      "name": "approve",
      "outputs": [],
      "stateMutability": "nonpayable",
      "type": "function"
    },
    {
      "inputs": [
        {
          "internalType": "address",
          "name": "owner",
          "type": "address"
        }
      ],
      "name": "balanceOf",
      "outputs": [
        {
          "internalType": "uint256",
          "name": "",
          "type": "uint256"
        }
      ],
      "stateMutability": "view",
      "type": "function"
    },
    {
      "inputs": [
        {
          "internalType": "uint256",
          "name": "tokenId",
          "type": "uint256"
        }
      ],
      "name": "getApproved",
      "outputs": [
        {
          "internalType": "address",
          "name": "",
          "type": "address"
        }
      ],
      "stateMutability": "view",
      "type": "function"
    },
    {
      "inputs": [
        {
          "internalType": "address",
          "name": "owner",
          "type": "address"
        },
        {
          "internalType": "address",
          "name": "operator",
          "type": "address"
        }
      ],
      "name": "isApprovedForAll",
      "outputs": [
        {
          "internalType": "bool",
          "name": "",
          "type": "bool"
        }
      ],
      "stateMutability": "view",
      "type": "function"
    },
    {
      "inputs": [
        {
          "internalType": "address",
          "name": "to",
          "type": "address"
        },
        {
          "internalType": "uint256",
          "name": "level",
          "type": "uint256"
        },
        {
          "internalType": "uint256",
          "name": "power",
          "type": "uint256"
        },
        {
          "internalType": "uint256",
          "name": "rarity",
          "type": "uint256"
        },
        {
          "internalType": "string",
          "name": "characterType",
          "type": "string"
        }
      ],
      "name": "mint",
      "outputs": [],
      "stateMutability": "nonpayable",
      "type": "function"
    },
    {
      "inputs": [],
      "name": "name",
      "outputs": [
        {
          "internalType": "string",
          "name": "",
          "type": "string"
        }
      ],
      "stateMutability": "view",
      "type": "function"
    },
    {
      "inputs": [
        {
          "internalType": "uint256",
          "name": "",
          "type": "uint256"
        }
      ],
      "name": "nftAttributes",
      "outputs": [
        {
          "internalType": "uint256",
          "name": "level",
          "type": "uint256"
        },
        {
          "internalType": "uint256",
          "name": "power",
          "type": "uint256"
        },
        {
          "internalType": "uint256",
          "name": "rarity",
          "type": "uint256"
        },
        {
          "internalType": "string",
          "name": "characterType",
          "type": "string"
        }
      ],
      "stateMutability": "view",
      "type": "function"
    },
    {
      "inputs": [],
      "name": "owner",
      "outputs": [
        {
          "internalType": "address",
          "name": "",
          "type": "address"
        }
      ],
      "stateMutability": "view",
      "type": "function"
    },
    {
      "inputs": [
        {
          "internalType": "uint256",
          "name": "tokenId",
          "type": "uint256"
        }
      ],
      "name": "ownerOf",
      "outputs": [
        {
          "internalType": "address",
          "name": "",
          "type": "address"
        }
      ],
      "stateMutability": "view",
      "type": "function"
    },
    {
      "inputs": [],
      "name": "renounceOwnership",
      "outputs": [],
      "stateMutability": "nonpayable",
      "type": "function"
    },
    {
      "inputs": [
        {
          "internalType": "address",
          "name": "from",
          "type": "address"
        },
        {
          "internalType": "address",
          "name": "to",
          "type": "address"
        },
        {
          "internalType": "uint256",
          "name": "tokenId",
          "type": "uint256"
        }
      ],
      "name": "safeTransferFrom",
      "outputs": [],
      "stateMutability": "nonpayable",
      "type": "function"
    },
    {
      "inputs": [
        {
          "internalType": "address",
          "name": "from",
          "type": "address"
        },
        {
          "internalType": "address",
          "name": "to",
          "type": "address"
        },
        {
          "internalType": "uint256",
          "name": "tokenId",
          "type": "uint256"
        },
        {
          "internalType": "bytes",
          "name": "data",
          "type": "bytes"
        }
      ],
      "name": "safeTransferFrom",
      "outputs": [],
      "stateMutability": "nonpayable",
      "type": "function"
    },
    {
      "inputs": [
        {
          "internalType": "address",
          "name": "operator",
          "type": "address"
        },
        {
          "internalType": "bool",
          "name": "approved",
          "type": "bool"
        }
      ],
      "name": "setApprovalForAll",
      "outputs": [],
      "stateMutability": "nonpayable",
      "type": "function"
    },
    {
      "inputs": [
        {
          "internalType": "string",
          "name": "baseURI",
          "type": "string"
        }
      ],
      "name": "setBaseURI",
      "outputs": [],
      "stateMutability": "nonpayable",
      "type": "function"
    },
    {
      "inputs": [
        {
          "internalType": "bytes4",
          "name": "interfaceId",
          "type": "bytes4"
        }
      ],
      "name": "supportsInterface",
      "outputs": [
        {
          "internalType": "bool",
          "name": "",
          "type": "bool"
        }
      ],
      "stateMutability": "view",
      "type": "function"
    },
    {
      "inputs": [],
      "name": "symbol",
      "outputs": [
        {
          "internalType": "string",
          "name": "",
          "type": "string"
        }
      ],
      "stateMutability": "view",
      "type": "function"
    },
    {
      "inputs": [
        {
          "internalType": "uint256",
          "name": "index",
          "type": "uint256"
        }
      ],
      "name": "tokenByIndex",
      "outputs": [
        {
          "internalType": "uint256",
          "name": "",
          "type": "uint256"
        }
      ],
      "stateMutability": "view",
      "type": "function"
    },
    {
      "inputs": [
        {
          "internalType": "address",
          "name": "owner",
          "type": "address"
        },
        {
          "internalType": "uint256",
          "name": "index",
          "type": "uint256"
        }
      ],
      "name": "tokenOfOwnerByIndex",
      "outputs": [
        {
          "internalType": "uint256",
          "name": "",
          "type": "uint256"
        }
      ],
      "stateMutability": "view",
      "type": "function"
    },
    {
      "inputs": [
        {
          "internalType": "uint256",
          "name": "tokenId",
          "type": "uint256"
        }
      ],
      "name": "tokenURI",
      "outputs": [
        {
          "internalType": "string",
          "name": "",
          "type": "string"
        }
      ],
      "stateMutability": "view",
      "type": "function"
    },
    {
      "inputs": [],
      "name": "totalSupply",
      "outputs": [
        {
          "internalType": "uint256",
          "name": "",
          "type": "uint256"
        }
      ],
      "stateMutability": "view",
      "type": "function"
    },
    {
      "inputs": [
        {
          "internalType": "address",
          "name": "from",
          "type": "address"
        },
        {
          "internalType": "address",
          "name": "to",
          "type": "address"
        },
        {
          "internalType": "uint256",
          "name": "tokenId",
          "type": "uint256"
        }
      ],
      "name": "transferFrom",
      "outputs": [],
      "stateMutability": "nonpayable",
      "type": "function"
    },
    {
      "inputs": [
        {
          "internalType": "address",
          "name": "newOwner",
          "type": "address"
        }
      ],
      "name": "transferOwnership",
      "outputs": [],
      "stateMutability": "nonpayable",
      "type": "function"
    },
    {
      "inputs": [
        {
          "internalType": "uint256",
          "name": "tokenId",
          "type": "uint256"
        },
        {
          "internalType": "uint256",
          "name": "level",
          "type": "uint256"
        },
        {
          "internalType": "uint256",
          "name": "power",
          "type": "uint256"
        }
      ],
      "name": "updateAttributes",
      "outputs": [],
      "stateMutability": "nonpayable",
      "type": "function"
    }
  ],
  "bytecode": "0x60806040526001600b553480156200001657600080fd5b50336040518060400160405280600781526020016611d85b5953919560ca1b8152506040518060400160405280600481526020016311d3919560e21b8152508160009081620000669190620001b0565b506001620000758282620001b0565b5050506001600160a01b038116620000a757604051631e4fbdf760e01b81526000600482015260240160405180910390fd5b620000b281620000b9565b506200027c565b600a80546001600160a01b038381166001600160a01b0319831681179093556040519116919082907f8be0079c531659141344cd1fd0a4f28419497f9722a3daafe3b4186f6b6457e090600090a35050565b634e487b7160e01b600052604160045260246000fd5b600181811c908216806200013657607f821691505b6020821081036200015757634e487b7160e01b600052602260045260246000fd5b50919050565b601f821115620001ab57600081815260208120601f850160051c81016020861015620001865750805b601f850160051c820191505b81811015620001a75782815560010162000192565b5050505b505050565b81516001600160401b03811115620001cc57620001cc6200010b565b620001e481620001dd845462000121565b846200015d565b602080601f8311600181146200021c5760008415620002035750858301515b600019600386901b1c1916600185901b178555620001a7565b600085815260208120601f198616915b828110156200024d578886015182559484019460019091019084016200022c565b50858210156200026c5787850151600019600388901b60f8161c191681555b5050505050600190811b01905550565b611979806200028c6000396000f3fe608060405234801561001057600080fd5b50600436106101585760003560e01c80636352211e116100c3578063b88d4fde1161007c578063b88d4fde146102c1578063c87b56dd146102d4578063d3e01a33146102e7578063d4b5d603146102fa578063e985e9c51461031d578063f2fde38b1461033057600080fd5b80636352211e1461026757806370a082311461027a578063715018a61461028d5780638da5cb5b1461029557806395d89b41146102a6578063a22cb465146102ae57600080fd5b80632f745c59116101155780632f745c59146101ff57806332cb6b0c146102125780633edfd9541461021b57806342842e0e1461022e5780634f6ccce71461024157806355f804b31461025457600080fd5b806301ffc9a71461015d57806306fdde0314610185578063081812fc1461019a578063095ea7b3146101c557806318160ddd146101da57806323b872dd146101ec575b600080fd5b61017061016b36600461134e565b610343565b60405190151581526020015b60405180910390f35b61018d610354565b60405161017c91906113bb565b6101ad6101a83660046113ce565b6103e6565b6040516001600160a01b03909116815260200161017c565b6101d86101d3366004611403565b61040f565b005b6008545b60405190815260200161017c565b6101d86101fa36600461142d565b61041e565b6101de61020d366004611403565b6104ae565b6101de61271081565b6101d8610229366004611515565b610513565b6101d861023c36600461142d565b6105e6565b6101de61024f3660046113ce565b610606565b6101d8610262366004611580565b61065f565b6101ad6102753660046113ce565b610673565b6101de6102883660046115b5565b61067e565b6101d86106c6565b600a546001600160a01b03166101ad565b61018d6106da565b6101d86102bc3660046115d0565b6106e9565b6101d86102cf36600461160c565b6106f4565b61018d6102e23660046113ce565b61070c565b6101d86102f5366004611688565b610774565b61030d6103083660046113ce565b6107dc565b60405161017c94939291906116b4565b61017061032b3660046116e3565b61088f565b6101d861033e3660046115b5565b6108bd565b600061034e826108fb565b92915050565b60606000805461036390611716565b80601f016020809104026020016040519081016040528092919081815260200182805461038f90611716565b80156103dc5780601f106103b1576101008083540402835291602001916103dc565b820191906000526020600020905b8154815290600101906020018083116103bf57829003601f168201915b5050505050905090565b60006103f182610920565b506000828152600460205260409020546001600160a01b031661034e565b61041a828233610959565b5050565b6001600160a01b03821661044d57604051633250574960e11b8152600060048201526024015b60405180910390fd5b600061045a838333610966565b9050836001600160a01b0316816001600160a01b0316146104a8576040516364283d7b60e01b81526001600160a01b0380861660048301526024820184905282166044820152606401610444565b50505050565b60006104b98361067e565b82106104ea5760405163295f44f760e21b81526001600160a01b038416600482015260248101839052604401610444565b506001600160a01b03919091166000908152600660209081526040808320938352929052205490565b61051b61097b565b612710600b5411156105645760405162461bcd60e51b815260206004820152601260248201527113585e081cdd5c1c1b1e481c995858da195960721b6044820152606401610444565b600b80546000918261057583611766565b91905055905061058586826109a8565b604080516080810182528681526020808201878152828401878152606084018781526000878152600d90945294909220835181559051600182015590516002820155915190919060038201906105db90826117c5565b505050505050505050565b610601838383604051806020016040528060008152506106f4565b505050565b600061061160085490565b821061063a5760405163295f44f760e21b81526000600482015260248101839052604401610444565b6008828154811061064d5761064d611885565b90600052602060002001549050919050565b61066761097b565b600c61041a82826117c5565b600061034e82610920565b60006001600160a01b0382166106aa576040516322718ad960e21b815260006004820152602401610444565b506001600160a01b031660009081526003602052604090205490565b6106ce61097b565b6106d860006109c2565b565b60606001805461036390611716565b61041a338383610a14565b6106ff84848461041e565b6104a83385858585610ab3565b606061071782610673565b506000610722610bde565b90506000815111610742576040518060200160405280600081525061076d565b8061074c84610bed565b60405160200161075d92919061189b565b6040516020818303038152906040525b9392505050565b3361077e84610673565b6001600160a01b0316146107c45760405162461bcd60e51b815260206004820152600d60248201526c2737ba103a34329037bbb732b960991b6044820152606401610444565b6000928352600d602052604090922090815560010155565b600d6020526000908152604090208054600182015460028301546003840180549394929391929161080c90611716565b80601f016020809104026020016040519081016040528092919081815260200182805461083890611716565b80156108855780601f1061085a57610100808354040283529160200191610885565b820191906000526020600020905b81548152906001019060200180831161086857829003601f168201915b5050505050905084565b6001600160a01b03918216600090815260056020908152604080832093909416825291909152205460ff1690565b6108c561097b565b6001600160a01b0381166108ef57604051631e4fbdf760e01b815260006004820152602401610444565b6108f8816109c2565b50565b60006001600160e01b0319821663780e9d6360e01b148061034e575061034e82610c80565b6000818152600260205260408120546001600160a01b03168061034e57604051637e27328960e01b815260048101849052602401610444565b6106018383836001610cd0565b6000610973848484610dd6565b949350505050565b600a546001600160a01b031633146106d85760405163118cdaa760e01b8152336004820152602401610444565b61041a828260405180602001604052806000815250610ea3565b600a80546001600160a01b038381166001600160a01b0319831681179093556040519116919082907f8be0079c531659141344cd1fd0a4f28419497f9722a3daafe3b4186f6b6457e090600090a35050565b6001600160a01b038216610a4657604051630b61174360e31b81526001600160a01b0383166004820152602401610444565b6001600160a01b03838116600081815260056020908152604080832094871680845294825291829020805460ff191686151590811790915591519182527f17307eab39ab6107e8899845ad3d59bd9653f200f220920489ca2b5937696c31910160405180910390a3505050565b6001600160a01b0383163b15610bd757604051630a85bd0160e11b81526001600160a01b0384169063150b7a0290610af59088908890879087906004016118ca565b6020604051808303816000875af1925050508015610b30575060408051601f3d908101601f19168201909252610b2d918101906118fd565b60015b610b99573d808015610b5e576040519150601f19603f3d011682016040523d82523d6000602084013e610b63565b606091505b508051600003610b9157604051633250574960e11b81526001600160a01b0385166004820152602401610444565b805160208201fd5b6001600160e01b03198116630a85bd0160e11b14610bd557604051633250574960e11b81526001600160a01b0385166004820152602401610444565b505b5050505050565b6060600c805461036390611716565b60606000610bfa83610ebb565b600101905060008167ffffffffffffffff811115610c1a57610c1a611469565b6040519080825280601f01601f191660200182016040528015610c44576020820181803683370190505b5090508181016020015b600019016f181899199a1a9b1b9c1cb0b131b232b360811b600a86061a8153600a8504945084610c4e57509392505050565b60006001600160e01b031982166380ac58cd60e01b1480610cb157506001600160e01b03198216635b5e139f60e01b145b8061034e57506301ffc9a760e01b6001600160e01b031983161461034e565b8080610ce457506001600160a01b03821615155b15610da6576000610cf484610920565b90506001600160a01b03831615801590610d205750826001600160a01b0316816001600160a01b031614155b8015610d335750610d31818461088f565b155b15610d5c5760405163a9fbf51f60e01b81526001600160a01b0384166004820152602401610444565b8115610da45783856001600160a01b0316826001600160a01b03167f8c5be1e5ebec7d5bd14f71427d1e84f3dd0314c0f7b2291e5b200ac8c7c3b92560405160405180910390a45b505b5050600090815260046020526040902080546001600160a01b0319166001600160a01b0392909216919091179055565b600080610de4858585610f93565b90506001600160a01b038116610e4157610e3c84600880546000838152600960205260408120829055600182018355919091527ff3f7a9fe364faab93b216da50a3214154f22a0a2b415b23a84c8169e8b636ee30155565b610e64565b846001600160a01b0316816001600160a01b031614610e6457610e64818561108c565b6001600160a01b038516610e8057610e7b8461110d565b610973565b846001600160a01b0316816001600160a01b0316146109735761097385856111bc565b610ead838361120c565b610601336000858585610ab3565b60008072184f03e93ff9f4daa797ed6e38ed64bf6a1f0160401b8310610efa5772184f03e93ff9f4daa797ed6e38ed64bf6a1f0160401b830492506040015b6d04ee2d6d415b85acef81000000008310610f26576d04ee2d6d415b85acef8100000000830492506020015b662386f26fc100008310610f4457662386f26fc10000830492506010015b6305f5e1008310610f5c576305f5e100830492506008015b6127108310610f7057612710830492506004015b60648310610f82576064830492506002015b600a831061034e5760010192915050565b6000828152600260205260408120546001600160a01b0390811690831615610fc057610fc0818486611271565b6001600160a01b03811615610ffe57610fdd600085600080610cd0565b6001600160a01b038116600090815260036020526040902080546000190190555b6001600160a01b0385161561102d576001600160a01b0385166000908152600360205260409020805460010190555b60008481526002602052604080822080546001600160a01b0319166001600160a01b0389811691821790925591518793918516917fddf252ad1be2c89b69c2b068fc378daa952ba7f163c4a11628f55a4df523b3ef91a4949350505050565b60006110978361067e565b6000838152600760209081526040808320546001600160a01b03881684526006909252909120919250908183146110ee57600083815260208281526040808320548584528184208190558352600790915290208290555b6000938452600760209081526040808620869055938552525081205550565b60085460009061111f9060019061191a565b6000838152600960205260408120546008805493945090928490811061114757611147611885565b90600052602060002001549050806008838154811061116857611168611885565b60009182526020808320909101929092558281526009909152604080822084905585825281205560088054806111a0576111a061192d565b6001900381819060005260206000200160009055905550505050565b600060016111c98461067e565b6111d3919061191a565b6001600160a01b039093166000908152600660209081526040808320868452825280832085905593825260079052919091209190915550565b6001600160a01b03821661123657604051633250574960e11b815260006004820152602401610444565b600061124483836000610966565b90506001600160a01b03811615610601576040516339e3563760e11b815260006004820152602401610444565b61127c8383836112d5565b610601576001600160a01b0383166112aa57604051637e27328960e01b815260048101829052602401610444565b60405163177e802f60e01b81526001600160a01b038316600482015260248101829052604401610444565b60006001600160a01b038316158015906109735750826001600160a01b0316846001600160a01b0316148061130f575061130f848461088f565b806109735750506000908152600460205260409020546001600160a01b03908116911614919050565b6001600160e01b0319811681146108f857600080fd5b60006020828403121561136057600080fd5b813561076d81611338565b60005b8381101561138657818101518382015260200161136e565b50506000910152565b600081518084526113a781602086016020860161136b565b601f01601f19169290920160200192915050565b60208152600061076d602083018461138f565b6000602082840312156113e057600080fd5b5035919050565b80356001600160a01b03811681146113fe57600080fd5b919050565b6000806040838503121561141657600080fd5b61141f836113e7565b946020939093013593505050565b60008060006060848603121561144257600080fd5b61144b846113e7565b9250611459602085016113e7565b9150604084013590509250925092565b634e487b7160e01b600052604160045260246000fd5b600067ffffffffffffffff8084111561149a5761149a611469565b604051601f8501601f19908116603f011681019082821181831017156114c2576114c2611469565b816040528093508581528686860111156114db57600080fd5b858560208301376000602087830101525050509392505050565b600082601f83011261150657600080fd5b61076d8383356020850161147f565b600080600080600060a0868803121561152d57600080fd5b611536866113e7565b9450602086013593506040860135925060608601359150608086013567ffffffffffffffff81111561156757600080fd5b611573888289016114f5565b9150509295509295909350565b60006020828403121561159257600080fd5b813567ffffffffffffffff8111156115a957600080fd5b610973848285016114f5565b6000602082840312156115c757600080fd5b61076d826113e7565b600080604083850312156115e357600080fd5b6115ec836113e7565b91506020830135801515811461160157600080fd5b809150509250929050565b6000806000806080858703121561162257600080fd5b61162b856113e7565b9350611639602086016113e7565b925060408501359150606085013567ffffffffffffffff81111561165c57600080fd5b8501601f8101871361166d57600080fd5b61167c8782356020840161147f565b91505092959194509250565b60008060006060848603121561169d57600080fd5b505081359360208301359350604090920135919050565b8481528360208201528260408201526080606082015260006116d9608083018461138f565b9695505050505050565b600080604083850312156116f657600080fd5b6116ff836113e7565b915061170d602084016113e7565b90509250929050565b600181811c9082168061172a57607f821691505b60208210810361174a57634e487b7160e01b600052602260045260246000fd5b50919050565b634e487b7160e01b600052601160045260246000fd5b60006001820161177857611778611750565b5060010190565b601f82111561060157600081815260208120601f850160051c810160208610156117a65750805b601f850160051c820191505b81811015610bd5578281556001016117b2565b815167ffffffffffffffff8111156117df576117df611469565b6117f3816117ed8454611716565b8461177f565b602080601f83116001811461182857600084156118105750858301515b600019600386901b1c1916600185901b178555610bd5565b600085815260208120601f198616915b8281101561185757888601518255948401946001909101908401611838565b50858210156118755787850151600019600388901b60f8161c191681555b5050505050600190811b01905550565b634e487b7160e01b600052603260045260246000fd5b600083516118ad81846020880161136b565b8351908301906118c181836020880161136b565b01949350505050565b6001600160a01b03858116825284166020820152604081018390526080606082018190526000906116d99083018461138f565b60006020828403121561190f57600080fd5b815161076d81611338565b8181038181111561034e5761034e611750565b634e487b7160e01b600052603160045260246000fdfea2646970667358221220c6992f68f0c206983b667a0fc7e71d58a2a5eed04986519c1290fd5c51631a9764736f6c63430008140033",
  "linkReferences": {},
  "deployedLinkReferences": {}
}