{
  "_format": "hh-sol-artifact-1",
  "contractName": "GameToken",
  "sourceName": "contracts/GameToken.sol",
  "abi": [
    {
      "inputs": [],
      "stateMutability": "nonpayable",
      "type": "constructor"
    },
    {
      "inputs": [
        {
          "internalType": "address",
          "name": "spender",
          "type": "address"
        },
        {
          "internalType": "uint256",
          "name": "allowance",
          "type": "uint256"
        },
        {
          "internalType": "uint256",
          "name": "needed",
          "type": "uint256"
        }
      ],
      "name": "ERC20InsufficientAllowance",
      "type": "error"
    },
    {
      "inputs": [
        {
          "internalType": "address",
          "name": "sender",
          "type": "address"
        },
        {
          "internalType": "uint256",
          "name": "balance",
          "type": "uint256"
        },
        {
          "internalType": "uint256",
          "name": "needed",
          "type": "uint256"
        }
      ],
      "name": "ERC20InsufficientBalance",
      "type": "error"
    },
    {
      "inputs": [
        {
          "internalType": "address",
          "name": "approver",
          "type": "address"
        }
      ],
      "name": "ERC20InvalidApprover",
      "type": "error"
    },
    {
      "inputs": [
        {
          "internalType": "address",
          "name": "receiver",
          "type": "address"
        }
      ],
      "name": "ERC20InvalidReceiver",
      "type": "error"
    },
    {
      "inputs": [
        {
          "internalType": "address",
          "name": "sender",
          "type": "address"
        }
      ],
      "name": "ERC20InvalidSender",
      "type": "error"
    },
    {
      "inputs": [
        {
          "internalType": "address",
          "name": "spender",
          "type": "address"
        }
      ],
      "name": "ERC20InvalidSpender",
      "type": "error"
    },
    {
      "inputs": [
        {
          "internalType": "address",
          "name": "owner",
          "type": "address"
        }
      ],
      "name": "OwnableInvalidOwner",
      "type": "error"
    },
    {
      "inputs": [
        {
          "internalType": "address",
          "name": "account",
          "type": "address"
        }
      ],
      "name": "OwnableUnauthorizedAccount",
      "type": "error"
    },
    {
      "anonymous": false,
      "inputs": [
        {
          "indexed": true,
          "internalType": "address",
          "name": "owner",
          "type": "address"
        },
        {
          "indexed": true,
          "internalType": "address",
          "name": "spender",
          "type": "address"
        },
        {
          "indexed": false,
          "internalType": "uint256",
          "name": "value",
          "type": "uint256"
        }
      ],
      "name": "Approval",
      "type": "event"
    },
    {
      "anonymous": false,
      "inputs": [
        {
          "indexed": true,
          "internalType": "address",
          "name": "previousOwner",
          "type": "address"
        },
        {
          "indexed": true,
          "internalType": "address",
          "name": "newOwner",
          "type": "address"
        }
      ],
      "name": "OwnershipTransferred",
      "type": "event"
    },
    {
      "anonymous": false,
      "inputs": [
        {
          "indexed": true,
          "internalType": "address",
          "name": "from",
          "type": "address"
        },
        {
          "indexed": true,
          "internalType": "address",
          "name": "to",
          "type": "address"
        },
        {
          "indexed": false,
          "internalType": "uint256",
          "name": "value",
          "type": "uint256"
        }
      ],
      "name": "Transfer",
      "type": "event"
    },
    {
      "inputs": [],
      "name": "INITIAL_SUPPLY",
      "outputs": [
        {
          "internalType": "uint256",
          "name": "",
          "type": "uint256"
        }
      ],
      "stateMutability": "view",
      "type": "function"
    },
    {
      "inputs": [],
      "name": "MAX_SUPPLY",
      "outputs": [
        {
          "internalType": "uint256",
          "name": "",
          "type": "uint256"
        }
      ],
      "stateMutability": "view",
      "type": "function"
    },
    {
      "inputs": [
        {
          "internalType": "address",
          "name": "owner",
          "type": "address"
        },
        {
          "internalType": "address",
          "name": "spender",
          "type": "address"
        }
      ],
      "name": "allowance",
      "outputs": [
        {
          "internalType": "uint256",
          "name": "",
          "type": "uint256"
        }
      ],
      "stateMutability": "view",
      "type": "function"
    },
    {
      "inputs": [
        {
          "internalType": "address",
          "name": "spender",
          "type": "address"
        },
        {
          "internalType": "uint256",
          "name": "value",
          "type": "uint256"
        }
      ],
      "name": "approve",
      "outputs": [
        {
          "internalType": "bool",
          "name": "",
          "type": "bool"
        }
      ],
      "stateMutability": "nonpayable",
      "type": "function"
    },
    {
      "inputs": [
        {
          "internalType": "address",
          "name": "account",
          "type": "address"
        }
      ],
      "name": "balanceOf",
      "outputs": [
        {
          "internalType": "uint256",
          "name": "",
          "type": "uint256"
        }
      ],
      "stateMutability": "view",
      "type": "function"
    },
    {
      "inputs": [
        {
          "internalType": "uint256",
          "name": "amount",
          "type": "uint256"
        }
      ],
      "name": "burn",
      "outputs": [],
      "stateMutability": "nonpayable",
      "type": "function"
    },
    {
      "inputs": [],
      "name": "decimals",
      "outputs": [
        {
          "internalType": "uint8",
          "name": "",
          "type": "uint8"
        }
      ],
      "stateMutability": "view",
      "type": "function"
    },
    {
      "inputs": [
        {
          "internalType": "address",
          "name": "to",
          "type": "address"
        },
        {
          "internalType": "uint256",
          "name": "amount",
          "type": "uint256"
        }
      ],
      "name": "mint",
      "outputs": [],
      "stateMutability": "nonpayable",
      "type": "function"
    },
    {
      "inputs": [],
      "name": "name",
      "outputs": [
        {
          "internalType": "string",
          "name": "",
          "type": "string"
        }
      ],
      "stateMutability": "view",
      "type": "function"
    },
    {
      "inputs": [],
      "name": "owner",
      "outputs": [
        {
          "internalType": "address",
          "name": "",
          "type": "address"
        }
      ],
      "stateMutability": "view",
      "type": "function"
    },
    {
      "inputs": [],
      "name": "renounceOwnership",
      "outputs": [],
      "stateMutability": "nonpayable",
      "type": "function"
    },
    {
      "inputs": [],
      "name": "symbol",
      "outputs": [
        {
          "internalType": "string",
          "name": "",
          "type": "string"
        }
      ],
      "stateMutability": "view",
      "type": "function"
    },
    {
      "inputs": [],
      "name": "totalSupply",
      "outputs": [
        {
          "internalType": "uint256",
          "name": "",
          "type": "uint256"
        }
      ],
      "stateMutability": "view",
      "type": "function"
    },
    {
      "inputs": [
        {
          "internalType": "address",
          "name": "to",
          "type": "address"
        },
        {
          "internalType": "uint256",
          "name": "value",
          "type": "uint256"
        }
      ],
      "name": "transfer",
      "outputs": [
        {
          "internalType": "bool",
          "name": "",
          "type": "bool"
        }
      ],
      "stateMutability": "nonpayable",
      "type": "function"
    },
    {
      "inputs": [
        {
          "internalType": "address",
          "name": "from",
          "type": "address"
        },
        {
          "internalType": "address",
          "name": "to",
          "type": "address"
        },
        {
          "internalType": "uint256",
          "name": "value",
          "type": "uint256"
        }
      ],
      "name": "transferFrom",
      "outputs": [
        {
          "internalType": "bool",
          "name": "",
          "type": "bool"
        }
      ],
      "stateMutability": "nonpayable",
      "type": "function"
    },
    {
      "inputs": [
        {
          "internalType": "address",
          "name": "newOwner",
          "type": "address"
        }
      ],
      "name": "transferOwnership",
      "outputs": [],
      "stateMutability": "nonpayable",
      "type": "function"
    }
  ],
  "bytecode": "0x60806040523480156200001157600080fd5b50336040518060400160405280600981526020016823b0b6b2aa37b5b2b760b91b8152506040518060400160405280600381526020016247544b60e81b815250816003908162000062919062000334565b50600462000071828262000334565b5050506001600160a01b038116620000a457604051631e4fbdf760e01b8152600060048201526024015b60405180910390fd5b620000af81620000cc565b50620000c63369152d02c7e14af68000006200011e565b62000428565b600580546001600160a01b038381166001600160a01b0319831681179093556040519116919082907f8be0079c531659141344cd1fd0a4f28419497f9722a3daafe3b4186f6b6457e090600090a35050565b6001600160a01b0382166200014a5760405163ec442f0560e01b8152600060048201526024016200009b565b62000158600083836200015c565b5050565b6001600160a01b0383166200018b5780600260008282546200017f919062000400565b90915550620001ff9050565b6001600160a01b03831660009081526020819052604090205481811015620001e05760405163391434e360e21b81526001600160a01b038516600482015260248101829052604481018390526064016200009b565b6001600160a01b03841660009081526020819052604090209082900390555b6001600160a01b0382166200021d576002805482900390556200023c565b6001600160a01b03821660009081526020819052604090208054820190555b816001600160a01b0316836001600160a01b03167fddf252ad1be2c89b69c2b068fc378daa952ba7f163c4a11628f55a4df523b3ef836040516200028291815260200190565b60405180910390a3505050565b634e487b7160e01b600052604160045260246000fd5b600181811c90821680620002ba57607f821691505b602082108103620002db57634e487b7160e01b600052602260045260246000fd5b50919050565b601f8211156200032f57600081815260208120601f850160051c810160208610156200030a5750805b601f850160051c820191505b818110156200032b5782815560010162000316565b5050505b505050565b81516001600160401b038111156200035057620003506200028f565b6200036881620003618454620002a5565b84620002e1565b602080601f831160018114620003a05760008415620003875750858301515b600019600386901b1c1916600185901b1785556200032b565b600085815260208120601f198616915b82811015620003d157888601518255948401946001909101908401620003b0565b5085821015620003f05787850151600019600388901b60f8161c191681555b5050505050600190811b01905550565b808201808211156200042257634e487b7160e01b600052601160045260246000fd5b92915050565b6109e680620004386000396000f3fe608060405234801561001057600080fd5b50600436106101005760003560e01c806342966c681161009757806395d89b411161006657806395d89b4114610210578063a9059cbb14610218578063dd62ed3e1461022b578063f2fde38b1461026457600080fd5b806342966c68146101b157806370a08231146101c4578063715018a6146101ed5780638da5cb5b146101f557600080fd5b80632ff2e9dc116100d35780632ff2e9dc1461016b578063313ce5671461017c57806332cb6b0c1461018b57806340c10f191461019c57600080fd5b806306fdde0314610105578063095ea7b31461012357806318160ddd1461014657806323b872dd14610158575b600080fd5b61010d610277565b60405161011a9190610817565b60405180910390f35b610136610131366004610881565b610309565b604051901515815260200161011a565b6002545b60405190815260200161011a565b6101366101663660046108ab565b610323565b61014a69152d02c7e14af680000081565b6040516012815260200161011a565b61014a69d3c21bcecceda100000081565b6101af6101aa366004610881565b610347565b005b6101af6101bf3660046108e7565b6103c4565b61014a6101d2366004610900565b6001600160a01b031660009081526020819052604090205490565b6101af6103d1565b6005546040516001600160a01b03909116815260200161011a565b61010d6103e5565b610136610226366004610881565b6103f4565b61014a610239366004610922565b6001600160a01b03918216600090815260016020908152604080832093909416825291909152205490565b6101af610272366004610900565b610402565b60606003805461028690610955565b80601f01602080910402602001604051908101604052809291908181526020018280546102b290610955565b80156102ff5780601f106102d4576101008083540402835291602001916102ff565b820191906000526020600020905b8154815290600101906020018083116102e257829003601f168201915b5050505050905090565b60003361031781858561043d565b60019150505b92915050565b60003361033185828561044f565b61033c8585856104ce565b506001949350505050565b61034f61052d565b69d3c21bcecceda10000008161036460025490565b61036e919061098f565b11156103b65760405162461bcd60e51b815260206004820152601260248201527145786365656473206d617820737570706c7960701b60448201526064015b60405180910390fd5b6103c0828261055a565b5050565b6103ce3382610590565b50565b6103d961052d565b6103e360006105c6565b565b60606004805461028690610955565b6000336103178185856104ce565b61040a61052d565b6001600160a01b03811661043457604051631e4fbdf760e01b8152600060048201526024016103ad565b6103ce816105c6565b61044a8383836001610618565b505050565b6001600160a01b038381166000908152600160209081526040808320938616835292905220546000198110156104c857818110156104b957604051637dc7a0d960e11b81526001600160a01b038416600482015260248101829052604481018390526064016103ad565b6104c884848484036000610618565b50505050565b6001600160a01b0383166104f857604051634b637e8f60e11b8152600060048201526024016103ad565b6001600160a01b0382166105225760405163ec442f0560e01b8152600060048201526024016103ad565b61044a8383836106ed565b6005546001600160a01b031633146103e35760405163118cdaa760e01b81523360048201526024016103ad565b6001600160a01b0382166105845760405163ec442f0560e01b8152600060048201526024016103ad565b6103c0600083836106ed565b6001600160a01b0382166105ba57604051634b637e8f60e11b8152600060048201526024016103ad565b6103c0826000836106ed565b600580546001600160a01b038381166001600160a01b0319831681179093556040519116919082907f8be0079c531659141344cd1fd0a4f28419497f9722a3daafe3b4186f6b6457e090600090a35050565b6001600160a01b0384166106425760405163e602df0560e01b8152600060048201526024016103ad565b6001600160a01b03831661066c57604051634a1406b160e11b8152600060048201526024016103ad565b6001600160a01b03808516600090815260016020908152604080832093871683529290522082905580156104c857826001600160a01b0316846001600160a01b03167f8c5be1e5ebec7d5bd14f71427d1e84f3dd0314c0f7b2291e5b200ac8c7c3b925846040516106df91815260200190565b60405180910390a350505050565b6001600160a01b03831661071857806002600082825461070d919061098f565b9091555061078a9050565b6001600160a01b0383166000908152602081905260409020548181101561076b5760405163391434e360e21b81526001600160a01b038516600482015260248101829052604481018390526064016103ad565b6001600160a01b03841660009081526020819052604090209082900390555b6001600160a01b0382166107a6576002805482900390556107c5565b6001600160a01b03821660009081526020819052604090208054820190555b816001600160a01b0316836001600160a01b03167fddf252ad1be2c89b69c2b068fc378daa952ba7f163c4a11628f55a4df523b3ef8360405161080a91815260200190565b60405180910390a3505050565b600060208083528351808285015260005b8181101561084457858101830151858201604001528201610828565b506000604082860101526040601f19601f8301168501019250505092915050565b80356001600160a01b038116811461087c57600080fd5b919050565b6000806040838503121561089457600080fd5b61089d83610865565b946020939093013593505050565b6000806000606084860312156108c057600080fd5b6108c984610865565b92506108d760208501610865565b9150604084013590509250925092565b6000602082840312156108f957600080fd5b5035919050565b60006020828403121561091257600080fd5b61091b82610865565b9392505050565b6000806040838503121561093557600080fd5b61093e83610865565b915061094c60208401610865565b90509250929050565b600181811c9082168061096957607f821691505b60208210810361098957634e487b7160e01b600052602260045260246000fd5b50919050565b8082018082111561031d57634e487b7160e01b600052601160045260246000fdfea26469706673582212201065debc4e64ddf8b59f5a5fdb824433fee349844049c0a5555acf1e4dd72dee64736f6c63430008140033",
  "linkReferences": {},
  "deployedLinkReferences": {}
}